:1000000017110000130101006F004000130101FFF0
:1000100023261100EF004000B707200013078004DB
:100020002380E700130750062380E7001307C0066C
:100030002380E7002380E7009306F0062380D700A3
:100040001306C0022380C700130600022380C700E6
:10005000130670052380C7002380D700930620076E
:100060002380D7002380E700130740062380E700A2
:10007000130710022380E7001307A0002380E70086
:1000800037870100130101FF23800700930600005A
:100090001307F76937061000232601008327C100E4
:1000A000636CF7008327C100938717002326F100B4
:1000B0008327C100E378F7FE232401008327810012
:1000C000636CF70083278100938717002324F100D6
:1000D00083278100E378F7FE2320D600938616005D
:0400E0006FF09FFB23
:00000001FF
